:100000006F00005400000000DA010000DC01000075
:1000100000000000000000000000000000000000E0
:1000200000000000000000000000000000000000D0
:100030003E050000000000003E050000000000003A
:100040003E0500003E0500003E0500003E050000A4
:100050003E0500003E0500003E0500003E05000094
:100060003E0500003E0500003E0500003E05000084
:100070003E0500003E0500003E0500003E05000074
:100080003E0500003E0500003E0500003E05000064
:100090003E0500003E0500003E0500000000000097
:1000A000511126C022C206C4828282441244A24058
:1000B00031018280634E050263C305042E86AA8542
:1000C0007D5515C285466378B6006356C0000606A6
:1000D0008606E36CB6FE014563E4C500918D558D3F
:1000E00085820582F5FA82808682C93F2E858282CA
:1000F0003305A04063D70500B305B040C1B7B305D1
:10010000B0408682653F3305A0408282868263C705
:100110000500634905005D372E858282B305B04036
:10012000E35B05FE3305A040513F3305B0408282BA
:1001300000003D432A876373C3029377F700BDEF46
:10014000ADE5937606FF3D8ABA960CC34CC30CC747
:100150004CC74107E36BD7FE11E28280B306C34070
:100160008A069702000096966780A6002307B700CC
:10017000A306B7002306B700A305B7002305B70001
:10018000A304B7002304B700A303B7002303B700F9
:10019000A302B7002302B700A301B7002301B700F1
:1001A000A300B7002300B700828093F5F50F939664
:1001B0008500D58D93960501D58D61B7939627005F
:1001C0009702000096968682E78086FA9680C1178D
:1001D0001D8F3E96E374C3F8A5B701A001A0EFF20E
:1001E0003FEC1165111185451305050202C002C2DD
:1001F00002C402C602C802CA02CCA92B930700029D
:100200002310F100371401408D473EC28A85E14733
:10021000130504403EC4552E930700042310F1003B
:100220008A859147130504403EC44526F16737444B
:100230000140938707203EC66C00B7070C001305EA
:1002400004803ECA02C8231C0100792D8545130590
:100250000480EF00E077710189BDEFF27FE405656E
:10026000130181FC85451305058102C602C802CA37
:1002700002D402D602D802DA02C002C2231401005C
:1002800002CC02CE02D023120102E921930700041E
:100290002316F100E1473ECA6C008D473715014037
:1002A0003EC8C1641D269387F4FF373401403EC029
:1002B000B7270002938707718A85130504C03EC2E1
:1002C0004D2991672C08130504C02312F1027923EC
:1002D0009307803E2317F10289472318F1022C105F
:1002E00093070010130504C093840403231AF1023A
:1002F00026D4D521130504C08145E923130504C084
:10030000854555238545130504C041231301810309
:1003100069BBEFF2FFD8054569266D2ADD257165B9
:1003200013050520092FB707002083A507013725EE
:1003300000001305C5D9EF00807C5924AA85372514
:1003400000001305C5DAEF00807B37350140130547
:1003500005C05123AA85372500001305C5DBEF0032
:10036000007AB53D372500001305C5DCEF00900A83
:10037000ED35B724000037340140130504C0A12B2C
:10038000AA85138584DDEF0080778945130504C0B5
:10039000B123AA8537250000130545DEEF0020763E
:1003A000D9BFEFF2FFCF371402401C403707FFFCE4
:1003B000611193E717001CC05C404145F98F5CC098
:1003C0001C403707F7FE7D17F98F1CC01C4037070C
:1003D000FCFF7D17F98F1CC05C4041777D17F98FBA
:1003E0005CC0B7079F001CC4C1241C4C3706020028
:1003F00093E707021CCCB717014003A70740938679
:1004000007401377F7F023A0E74003A707401367DF
:10041000070823A0E74089479CCA02C002C21C4CBF
:1004200037070140A16693E717001CCC5C43D58FCA
:100430005CC31C404167B7160240D98F1CC00967D6
:100440009C42F18F3EC2824785073EC0924781E7BA
:100450008247E397E7FEB71702409C431397E700F4
:100460006358070685473EC2124785476310F70663
:10047000B72702409843C176FD16719B98C39843F5
:100480001367170098C3B7170240D843D8C3D8439F
:10049000758FD8C3D843C166558FD8C39843B70664
:1004A0000001558F98C3984393166700E3DD06FE5D
:1004B000D843B7160240719BD8C3D84313672700AF
:1004C000D8C32147DC42B18BE39EE7FE2101F1BE98
:1004D00002C259BFEFF2DFBC371702405C4337045A
:1004E00000209146B18B130404016385D700A14617
:1004F0006381D704B7376E01938707601CC0B716B6
:100500000240DC420840918313F7F700B707002050
:1005100093870700BA9783C50700DC4293F5F50F70
:1005200093F707083357B50099E3493E2A8718C067
:10053000ADBE5C43B777DC02938707C0C1B701A0AB
:100540009701002093810136138101F617250000E1
:1005500013058594970500209385C5AA138681808D
:1005600063FAC5008322050023A0550011059105FB
:10057000E3EAC5FE138581809385C1816377B50069
:10058000232005001105E36DB5FEB722000093821C
:100590000288739002308D4273904280970200006F
:1005A000938242A693E2320073905230EFF07FDFE5
:1005B00097020000938222D6739012347300203089
:1005C000B7F7FF1F03A5477C82809C45611122C2BB
:1005D00026C013F7070113F3F70001C7D8413363AF
:1005E000E30003D605001377F60F29C78323050020
:1005F000014713048002930480048546B395E60006
:10060000B376B6006392D50293122700BD46B39627
:10061000560093C6F6FFB3F37600B3125300B3E36C
:100620007200639787064CC90507A146E317D7FCFC
:10063000232075001307F00F6378C7048323450058
:10064000A14613048002930480040547B312D70027
:10065000337756006394E202139726000117BD45D5
:10066000B395E50093C5F5FFB3F375003317E300C9
:10067000B363770063928702232A550085064147BA
:10068000E395E6FC23227500124482442101828016
:10069000E39C97F80CC949BFE39297FE23285500C5
:1006A000F1BF23A8A1808280371702401C430E05AA
:1006B00093F777F05D8D08C38280EFF27F9E371746
:1006C00002405C4391462A84B18B6385D700A146E2
:1006D000638CD706B7376E01938707601CC0B716C7
:1006E0000240DC42918313F7F700B707002093879D
:1006F0008702BA9783C50700DC42184093F5F50FCF
:1007000093F707083355B70099E33A85453A48C04F
:1007100008C448C4B7170240DC43AD83FD8B13D730
:1007200037008A07F18BD98F93F637010D47637332
:10073000D700D1173707002013074701BA9783C5A1
:100740000700AD3A08C895B25C43B777DC029387DF
:1007500007C069B799C5371702401C4F5D8D08CF98
:100760008280B7170240984F1345F5FF798D88CFE7
:1007700082808357050037370140130707C0C2073F
:10078000C1836306E500370700406317E50003D720
:10079000250093F7F7F8D98F03D7650093F7F7CFC4
:1007A000C207C183D98F2310F50083D745002316D4
:1007B000F50283D705002314F502B737014093876C
:1007C00007C06316F50083C785002318F502854727
:1007D000231AF50082808357050203D6050003D350
:1007E0002500C207C183F99BC207C1832310F5020C
:1007F000835705028356450003578501C207C1830D
:10080000420741831377C7F8518F03D68500F59BC4
:10081000C20633666600D18F37360140130606C024
:10082000C1826313C50203D6A500DD9B03D3E50097
:10083000D18F03D64500ED9B93F6F6CFD18F03D62B
:10084000C50033666600D18E2312D500231CE50057
:1008500003D7650058D92310F502828003D72500FD
:1008600083D70500D98F03D74500D98F03D76500FB
:10087000D98F03D78500D98F03D7A500D98F03D788
:10088000C500D98F2312F50482808357050091C5D6
:1008900093E717002310F5008280C207C183F99BFC
:1008A000C207C183C5BF8357050091C593E70708F9
:1008B0002310F5008280C207C18393F7F7F7C207C0
:1008C000C183FDB783578501C207C183DD9BDD8DE1
:1008D000231CB50082800355450282800355050123
:1008E0006D8D3335A0008280EFF28FFB83560501BA
:1008F000F577FD17F58F83D6650003D7C500211165
:10090000D58F2318F5008356C500FD779387379F51
:10091000F58F83D645002A842EC0D58F83D68500D7
:10092000D58F83D6A500D58F2316F50083574501B3
:10093000C207C18393F7F7CF5D8F231AE500480004
:10094000AD3BB74701409387078082456315F406A6
:10095000C2470357C400139517003E9542070E0582
:1009600041873E958C41635A07048605EFF00FF5E9
:10097000930540062AC0EFF06FF4824793144500B8
:10098000930540063E85EFF02FF68357C400C2075B
:10099000C18763D607020E0593054006130525039C
:1009A000EFF0CFF11D89C98CC204C18023149400DB
:1009B00061016FF08FEFB24769BF8A0545BF12052D
:1009C0009305400613052503EFF04FEF3D89E1BF86
:1009D00081C98357C5000967D98F2316F500828026
:1009E0000357C500F977FD17F98FC5BF93F5F51FBC
:1009F0002312B5008280035505006D8D3335A000AC
:100A00008280EFF2EFE9B707002003A50701B715D1
:100A10007A0093850520EFF06FEA1375F50F238BAD
:100A2000A18093175500898F8A073E950E05239A5A
:100A3000A1806FF08FE7EFF2AFE62A841165111104
:100A40008545130505023933930700022310F10091
:100A5000371501408D473EC28A85E14713050540A1
:100A60003EC4A53622C637440140B70708006C00D3
:100A7000130504803ECA02C8231C0100B535854514
:100A800013050480B13771016FF02FE2EFF24FE1EF
:100A90007111AE840144635DC402B74701401387FE
:100AA00007803A859305000432C0B137B74701404B
:100AB00013870780024675D53387840083050700B6
:100AC000138507800504C205C1810D370246E1B7D1
:100AD000328511016FF06FDD3707002013078703A0
:100AE0001C439386C1813E956369D500938601E6D8
:100AF00063E5A60008C33E858280FD57EDBF130164
:100B0000C1FD3ED02EC832CA36CC3ACE97F7FF1F71
:100B10009387475922C4804326C206C6AA8409C4C3
:100B20001C4C99E322852D230C441408268622852B
:100B300036C0EF00D017B240224492441301410264
:100B40008280411126C206C622C42EC0AA8401C5D5
:100B5000184D11E3F529984C804419E32685CD29D9
:100B6000171700001307872B6313E402C0400357D5
:100B7000C400218B19C3184829EFA2852685B52208
:100B800029C97D55B2402244924441018280171701
:100B900000001307A72A6314E4008044C9BF171795
:100BA00000001307A725E314E4FCC044C9B782473B
:100BB00018C485073EC063580700144C634DD70224
:100BC0002947638AE50218409306170014C02300E2
:100BD000B7008247184483C507007D17E9F918C498
:100BE000635207022286A94526852528FD57E30A78
:100BF000F5F8294541BF2286268525207D57E31A31
:100C0000E5FC41B71C401387170018C02947238013
:100C1000E700C5B797F7FF1F9387C748AA858843A2
:100C20000DB7311122C626C406C8AA87AE84328405
:100C300011C5184D01E72AC0212982471717000066
:100C40001307C71D631BE406C043184C18C40357A1
:100C5000C400218B59C3184849C31848084093F66B
:100C6000F40F93F4F40F198D5848634AE5003E855C
:100C7000A28536C23EC06D2C824792462DE51844AF
:100C800005057D1718C418401306170010C023006F
:100C9000D70058486309A7000357C400058B01CB50
:100CA00029476396E400A2853E8559240DEDC24094
:100CB00032442685A2445101828017170000130791
:100CC000E7176314E400804749B7171700001307BC
:100CD000E712E31CE4F6C0478DBF3E85A2853EC007
:100CE000292082473DD9FD54D9B7411197F7FF1FFD
:100CF0009387473B26C2844322C406C6AA862E8415
:100D000099C49C4C89E72AC0268599268246971764
:100D100000009387A710631AF402C0400317C400B1
:100D200093170701C18313F6870035EE13F6070109
:100D30000DEEA5479CC2136707042316E4007D55FA
:100D4000B240224492444101828097170000938769
:100D5000E70E6314F4008044D1B79717000093871F
:100D6000E709E31DF4FAC04455BF918B9DC74C5869
:100D700099C9930744046386F500368536C02D2B48
:100D80008246232A04028357C4002322040093F7D7
:100D9000B7FD2316F4001C481CC08357C40093E71A
:100DA00087002316F4001C4881EF8357C400130703
:100DB000002093F707286385E700A2853685B929C7
:100DC0008357C40013F7170005C75C4823240400A9
:100DD000B307F0401CCC1C480145BDF38317C40089
:100DE00013F7070831DF93E707042316F40081BFE8
:100DF000898B014791E3584818C4F1BF83D6C500D9
:100E0000311122C606C826C413F78600AA872E848D
:100E100069EFD841634BE000B8416348E000014509
:100E2000C2403244A2445101828058546DDB844355
:100E30001396360123A00700635E06067048035729
:100E4000C400118B19C75840198E585819C338401F
:100E5000198E58540C5081463E853EC002977D57EE
:100E60008356C4008247631DE5009043754763685D
:100E7000C7063707402005073357C700058B25C332
:100E800018482322040018C013973601635807003E
:100E90007D576314E500984311E368C84C5884C338
:100EA000BDDD130744046384E5003E853121232A18
:100EB0000402B5B70C5001463E8585463EC00297F8
:100EC0007D572A868247E31CE5F698432DDBF546DD
:100ED0006305D700D9466313D70484C389B793E663
:100EE00006042316D4007D5525BF98490DDB8441A7
:100EF0008D8A98C1998C014691E2D04910C4E35083
:100F000090F2032384020C503A863E85A6863AC2AC
:100F10003EC00293824712476349A0008357C40032
:100F200093E707042316F4007DBF2A97898CC1BF7D
:100F30009C49B9CF411122C406C62A8411C51C4D53
:100F400081E72EC03122824597170000938707ED75
:100F5000639BF5004C408397C50095C722852244CA
:100F6000B240410161BD97170000938727ED63945C
:100F7000F5000C44CDB797170000938727E8E39C52
:100F8000F5FC4C44C9BFB240224401454101828076
:100F900001458280511122C206C42A842316B5005D
:100FA0002317C50023200500232205002324050064
:100FB0002322050623280500232A0500232C0500EB
:100FC000214681451305C505EFF0AF969717000040
:100FD0009387C7BB5CD097170000938727BE1CD4AC
:100FE00097170000938767C25CD497170000938718
:100FF00027C500D01CD8A240124431018280970539
:101000000000938525F389AA41111386F5FF22C4B8
:101010001314160032940A0432940E042EC0930561
:10102000440726C206C68926AA8409CD8247232002
:1010300005003105232CF5FE88C41306840681457E
:10104000EFF02F8FB24022442685924441018280E6
:101050001C4DBDE3511106C422C2970700009387BF
:1010600047FA1CD597F7FF1F938707049C43232457
:10107000050423260504232805046314F500854789
:101080001CCD2A841D2848C02285052808C4228535
:101090002D2048C4484001469145ED3D0844054691
:1010A000A545CD3D48440946C945ED3585471CCC8D
:1010B000A2401244310182808280411197F7FF1FC4
:1010C000938787FE22C4804326C206C61C4CAA848E
:1010D00099E32285B53F930784048047D8437D1761
:1010E00063560700984331CF9C43C5BF8316C400A5
:1010F000B1E6C177850723220406232004002322BA
:101100000400232404005CC423280400232A0400D0
:10111000232C0400214681451305C405EFF06F819F
:10112000232A0402232C0402232404042326040477
:101130002285B240224492444101828013048406F5
:1011400079BF914526853EC0C135824788C349FD98
:10115000B1479CC00144E9BF111122CA06CC26C880
:10116000AA862E8613048504814719E4E24052447E
:10117000C2443E8571018280044458407D17635407
:1011800007000040DDB703D5C400854563F3A50221
:101190000395E400FD55630EB5003685A6853EC671
:1011A0003AC436C232C00296B2472247924602463D
:1011B000C98F93848406D9B7AE878395E5005971AA
:1011C000A6D286D6A2D4B28463DC050083D7C7003A
:1011D00023A0060093F707088DEB9307004005A8AE
:1011E0001304F1006198228636C23EC0EF00D02A77
:1011F00082479246E34C05FC5840BD67F98F7977EA
:10120000BA9793B717009CC2C9BF93070004B650A2
:1012100026549CC0014596546561828003D7C50061
:10122000211122C806CA26C6098B2E8401CF930736
:1012300074041CC01CC885475CC8D2404244B244F8
:101240006101828034005000AA84BD3792452AC0D3
:101250002685192A01ED8317C40013F7072071FFB3
:10126000F19B93E727002316F400D1B7170700007E
:10127000130727D998D40357C40008C008C81367B8
:1012800007082316E400124758C8224711CF8315D8
:10129000E4002685EF00F02201C98357C400F19BCA
:1012A00093E717002316F4008357C4000247B36482
:1012B000F7002316940051B7DDC583A7C5FF511170
:1012C00022C206C426C01384C5FF63D307003E9420
:1012D000AA84EF00F02597F7FF1F938727DD9C4333
:1012E00091EF2322040097F7FF1F23A187DC12440C
:1012F000A2402685824431016F00B023637EF40052
:1013000014403307D4006396E7009843DC433697D4
:1013100018C05CC0C9BFBA87D84319C3E37DE4FED7
:1013200094433386D700631F86001040B29694C35F
:101330003386D700E31DC7FA10435843B29694C3CF
:10134000D8C375B76375C400B1479CC04DB7104092
:10135000B306C4006316D70014435843B29614C0B2
:1013600058C0C0C369B78280411126C2938435003A
:10137000F19806C622C4A104B14763F9F404B1444C
:1013800063E8B4042AC0EF00B01A138781801443C5
:101390008247368431E41387C180184309EB3E85C8
:1013A00081453EC0EF00A07B23A6A18082473E85F9
:1013B000A6853EC0EF00A07A7D5782476316E506FA
:1013C000314798C33E85EF00D01629A0E3DA04FA2E
:1013D000B1471CC10145B240224492444101828080
:1013E0001840058F634F07022D466376E60018C04C
:1013F0003A9404C031A058406393860223A4E1804C
:101400003E85EF0010131305B400130744006199E3
:10141000B307E540E9D33E94098F18C06DBFD8C229
:10142000C5B7A2864040BDB7130435007198E302EA
:1014300085FCB305A4403E853EC015277D578247F5
:10144000E319E5FAB5BF1C46FD171CC663DA0700B1
:10145000184E63C5E700A9476394F5006FF06FFC71
:101460001C422E851387170018C22380B700828084
:10147000311122C626C406C8AA872E873284B30437
:10148000D60063149400014531A8834504003A86D0
:101490003E853AC23EC0453FFD560504824712478D
:1014A000E311D5FEC2403244A244510182801301AF
:1014B00081F722C1A6DE9307F10106C32AC032C21A
:1014C0002E8493F487FF11C5184D01E736C64936BF
:1014D000B24617170000130767946317E40E82479C
:1014E000C0430357C400218B630207101848630FE1
:1014F000070E13070002A38CE4001307000323AABE
:101500000400238DE40036CA1247130650028346B6
:10151000070099C2639BC60E92473303F7406301ED
:10152000030202459A863E86A2853AC81AC68937C2
:10153000FD56630DD520D448324342479A96D4C80D
:101540008346070063840620130317007D5723A0FA
:10155000040023A60400D8C023A40400A38104042B
:1015600023AC04048345030015461715000013053A
:10157000E58E1AC2EF00207A12439440130713003D
:1015800059E513F6060109C613060002A381C40437
:1015900013F6860009C61306B002A381C40483456E
:1015A00003001306A0026381C508D4441A8781454D
:1015B00025450346070013031700130606FD637A4B
:1015C000C50ABDC9D4C48DA8171700001307078723
:1015D0006315E4008247804729B7171700001307F7
:1015E000E781E310E4F08247C047E5BD0245A285EC
:1015F00036C6EFF08FEFB246E30D05EE7D559A400B
:101600000A44F654130181088280050709B71716AA
:1016100000001306A6843306C54005453315C500F2
:10162000C98E94C03A833DBF52469305460010428E
:101630002ECA63490602D0C4034607009306E0029F
:101640006313D606034617009306A002631ED60254
:10165000D246090713864600944232CA63C4060282
:10166000D4C091A03306C04093E62600D0C494C0F5
:10167000E1B71397260036970607B306C7008545DE
:101680001A8705BFFD56E9BF050723A2040081455F
:10169000814625450346070013031700130606FD80
:1016A000637AC506D5FD834507000D461705000082
:1016B0001305457B3AC28525124711CD97060000D8
:1016C0009386467A158D93060004B396A60088404B
:1016D0000507558D88C083450700930717001946F5
:1016E00017050000130545783EC2238CB40025255C
:1016F00035C517F7FFFF1307E79005EB94405247F6
:1017000093F606108DC211073ACAD848A2473E97F1
:10171000D8C8DDBB1397260036970607B306C70067
:1017200085451A8785BF2107C5B702455808970622
:101730000000938626D42286A68597000000E70045
:1017400000002AC4A2477D57E391E7FC0357C40079
:1017500013770704E31407EAC84855B5024558084B
:1017600097060000938606D12286A685052AD1BF5A
:10177000011126CA3283B6849045944922CC06CE04
:101780002A84AE8763D3C600B2862320D30003C663
:10179000370401C685062320D300944393F606023E
:1017A00091C68326030089062320D30083A2070065
:1017B0009383970193F2620063830206904383C68A
:1017C000370413760602B336D00041EA1386370495
:1017D000A68522851AC43EC23AC00297FD56630808
:1017E000D506924722431145944303260300CC4774
:1017F000998A014302476397A6003383C540635328
:10180000030001439447904B6354D600918E369366
:101810008142E9076312530601451DA88502D4479A
:1018200003260300918EE3DBD2F885461E86A6854B
:1018300022851AC83EC616C41EC23AC00297FD567B
:1018400002479243A242B2474243E319D5FC7D5579
:10185000F2406244D24405618280B385D70013050B
:101860000003A381A50483C55704138616003E9682
:101870008906A301B60499BF85463E86A6852285C2
:1018800016C61AC43EC23AC00297FD56E301D5FC03
:10189000B2422243924785020247ADBF130141FD88
:1018A00022D206D426D032C203C6850136C42AC04D
:1018B000930690062E8493823504630DD60263E26C
:1018C000C606930680056301D61A63EDC600630A57
:1018D000062293063004630CD60A930424042301E1
:1018E000C4047DA8930630066303D60A9306400617
:1018F000E315D6FE1440084313F606089305450089
:1019000055C214410CC363D806001307D002B306B6
:10191000D040A301E40417060000130666552947CA
:101920005DA893060007630DD61663E5C60293060D
:10193000E0066304D61A9306F006E310D6FA0C40CC
:10194000144313F30508138546006305030608C313
:101950009442BDA093065007E303D6FE930680078A
:101960006304D61493063007E319D6F6144313869E
:10197000460010C38442D04181452685692E19C195
:10198000058D48C0584018C8A301040475A8144325
:10199000930424041386460010C398422301E404F0
:1019A0000547D5B713F6060414410CC329DEC20659
:1019B000C18691BF93F5050408C3D9D983D6060023
:1019C0001307F0066303E610170600001306464AE5
:1019D0002947A30104044C400CC463C5050008401A
:1019E0006D9908C099E296848DCD9684BA85368526
:1019F00016CC32CA3AC836C6EFE00FEF524642471D
:101A0000B246329583450500FD1436852380B40027
:101A1000BA85EFE0AFEAB24642475246E24263FC83
:101A2000E60AA146631ED7001840058B11CB54402F
:101A300018486347D70013070003A38FE4FEFD1483
:101A4000B3829240232854002247924602457008F0
:101A5000A285393B7D57631AE50A7D55A250125481
:101A600082541301C1028280A382C50417060000BC
:101A7000130606400C40084313F3050814411105F2
:101A8000630D030208C313F7150001C793E50502B0
:101A90000CC041479DFE0C4093F5F5FD0CC015BFF1
:101AA000944193E6060294C193068007A302D404EE
:101AB000170600001306063D75BF13F3050408C39F
:101AC000E30303FCC206C1827DBF170600001306B4
:101AD000263A2147FDBDAA8611BF90411443CC4947
:101AE00013730608138546006306030008C3984273
:101AF0000CC301A808C313760604984275DA2310B4
:101B0000B70023280400968481B714489245024503
:101B1000A247268682977D57E301E5F41840098B9A
:101B20001DEB72474844E35BE5F23A8505BF9245F9
:101B30000245A24785461A863AC81AC68297FD56BC
:101B4000E30DD5F042473243050754447246918E67
:101B5000E34FD7FCF9B7014713039401FDB75111C7
:101B600022C22A842E8523AC018006C4EFE0DFF672
:101B7000FD576317F500938781819C4391C31CC077
:101B8000A240124431018280511122C22E848395D9
:101B9000E50006C44522634905007C48AA977CC835
:101BA000A2401244310182808357C4007D777D17A3
:101BB000F98F2316F400EDB783D7C500311122C683
:101BC00026C406C893F70710AA842E843283B682EF
:101BD00091CB8395E50036C232C089460146312259
:101BE000924202438357C4007D777D17F98F2316F5
:101BF000F4008315E4003244C2402685A244968650
:101C00001A8651013DA8511122C22E848395E50008
:101C100006C4E128FD570357C400631BF500FD7798
:101C2000FD17F98F2316F400A2401244310182807F
:101C30008567D98F2316F40068C8FDB78395E50042
:101C400005A8511122C22A842E85B285368623AC7E
:101C5000018006C4EFE09FE3FD576317F50093870B
:101C600081819C4391C31CC0A240124431018280F7
:101C7000511122C22A842E8523AC018006C4CD20B6
:101C8000FD576317F500938781819C4391C31CC066
:101C9000A240124431018280511122C22A842E8531
:101CA000B28523AC018006C4D120FD576317F5002F
:101CB000938781819C4391C31CC0A240124431018F
:101CC0008280511122C22A842E8523AC018006C451
:101CD0006520FD576317F500938781819C4391C36D
:101CE0001CC0A240124431018280511122C22A84B8
:101CF0002E85B285368623AC018006C46120FD574F
:101D00006317F500938781819C4391C31CC0A24057
:101D100012443101828093F5F50F2A966314C500B1
:101D20000145828083470500E38DB7FE0505FDB7B9
:101D300082808280511122C22A842E85B285368605
:101D400023AC018006C4A920FD576317F5009387D3
:101D500081819C4391C31CC0A24012443101828006
:101D60009307800523ACF1807D5582809307800521
:101D700023ACF1807D5582809307800523ACF180F0
:101D8000014582809307800523ACF1807D558280D8
:101D90009307800523ACF1807D558280537973745D
:101DA000656D436C6B3A25640D0A000043686970E9
:101DB00049443A253038780D0A0000007573617285
:101DC0007420696E697425640A000000696E697484
:101DD0002074696D6572000074696D657256616C7E
:101DE00025640A00636F6D7061726520666C6167BF
:101DF0002025640A00000000000000000000000030
:101E000000000000000000000000000000000000D2
:101E100000000000000000000000000000000000C2
:101E200000000000000000000000000000000000B2
:101E300000000000000000000000000000000000A2
:101E40000000000000000000000000000000000092
:101E50000000000000000000232D302B20000000B7
:101E6000686C4C0065666745464700003031323388
:101E70003435363738394142434445460000000086
:101E800030313233343536373839616263646566F0
:041E9000000000004E
:101E940001020304050607080102030405060708F6
:101EA400006CDC020204060804080C100810182058
:101EB400102030402040608001020304050607081A
:101EC4000102030405060708BC000020000000000E
:101ED400181E0000381E0000F81D0000000000005D
:101EE40000000000000000000000000000000000EE
:101EF40000000000000000000000000000000000DE
:101F040000000000000000000000000000000000CD
:101F140000000000000000000000000000000000BD
:101F240000000000000000000000000000000000AD
:081F34003C0000203C000020ED
:00000001FF
